:020000040800F2
:100000008805002045010008510400086705000824
:100010006B0500086F05000873050008000000006C
:10002000000000000000000000000000770500084C
:1000300079050008000000007B0500087D05000828
:100040005F0100085F0100085F0100085F01000810
:100050005F0100085F0100085F010008B9050008A2
:10006000BB050008BD0500085F0100085F0100082E
:100070005F0100085F0100085F0100085F010008E0
:100080005F0100085F0100085F0100085F010008D0
:100090005F0100085F0100085F010008B705000864
:1000A0005F0100085F0100085F0100085F010008B0
:1000B0005F0100087F0500085F0100085F0100087C
:1000C0005F0100085F0100085F0100085F01000890
:1000D0005F010008530400088B040008EF040008C7
:1000E0005F0100085F0100085F0100085F01000870
:1000F0005F0100085F0100085F0100085F01000860
:100100005F0100085F0100085F0100085F0100084F
:100110005F0100085F0100085F0100085F0100083F
:100120005F0100085F0100085F0100085F0100082F
:10013000DFF80CD002F012FF00480047C1020008AF
:10014000880500200648804706480047FEE7FEE78E
:10015000FEE7FEE7FEE7FEE7FEE7FEE7FEE7FEE777
:10016000992D00083101000808B50121102001F087
:1001700053FA4FF40050ADF8000003208DF8020050
:1001800010208DF803006946674800F08FFF08BD16
:100190001FB50121022001F04CFA41F28730ADF881
:1001A000080041F61F40ADF804000020ADF80A0039
:1001B000ADF8060001A95D4801F0D8FB0122114607
:1001C0005A4801F04AFF1D208DF8000000208DF8EC
:1001D000010003208DF8020001208DF8030068461D
:1001E00001F087FA0121514801F01CFF1FBD10B535
:1001F00014214F4802F069FE02240CE04D48005DD6
:10020000232805D04B48015DA01E494A115400E047
:1002100010BD601CC4B2122CF0DB47A000F028FE19
:1002200000BFF5E710B51421484802F04EFE022445
:100230000CE04048005D232805D03E48015DA01E2B
:10024000424A115400E010BD601CC4B2122CF0DB15
:100250003FA000F00DFE00BFF5E710B5354800786F
:1002600024282CD133484078342817D006DC312894
:100270000BD032280CD033281CD10CE0352810D0FC
:10028000502814D0532815D10EE000F0A1FB11E046
:1002900000F0C5FB0EE000F0FDFB0BE000F018FCE9
:1002A00008E000F03DFE05E0FFF7BCFF02E0FFF7CD
:1002B0009EFF00BF00BF1E211E4802F006FE10BDBB
:1002C0004FF4E13000F0A6F94021254802F03FFB51
:1002D0004FF4E13000F026FA4021224802F037FBCB
:1002E00021A000F0C5FD00F0FDFDFFF73DFFFFF789
:1002F0004FFF4FF400510C4800F083FF00F03EFB2D
:1003000010E01C48007840B11E211B4802F0DDFDC2
:10031000FFF7A3FF0020174908701848007808B1BC
:1003200000F046FCEDE70000001001400004004032
:100330001400002082000020574946492050617374
:1003400073776F726420476F740D0A0000000020FD
:1003500057494649205353494420476F740D0A00BA
:10036000003801400044004041542B4E414D45535C
:1003700065676F0029000020640000202D00002028
:1003800010B500F0DFFF4FF4803000F0FBFF01F00C
:1003900038F8012820D1002001F079F8002001F080
:1003A00088F84FF4806001F07BF84FF4E0114FF4CF
:1003B000803001F04FF8012001F058F800BF3920DB
:1003C00001F003F80028FAD0022001F052F800BF33
:1003D00001F058F80828FBD110BD00E0401E0028AD
:1003E000FCD17047014601EBC1024FF0E0235A6196
:1003F00000229A6101221A6100BF4FF0E0221069C9
:1004000010F0010F02D010F4803FF6D000224FF020
:10041000E0231A619A617047014642F228324A434A
:100420004FF0E0235A6100229A6101221A6100BF55
:100430004FF0E022106910F0010F02D010F4803F5D
:10044000F6D000224FF0E0231A619A617047000055
:10045000704710B540F22551594802F081FA98B121
:1004600040F22551564802F0A5FA554802F0F8F935
:1004700004462146524802F0EFF900BF802150485F
:1004800002F058FA0028F9D010BD10B500204D49EF
:10049000087040F225514C4802F062FA30B340F245
:1004A0002551494802F086FA474802F0D9F94749F0
:1004B000474A1278885446480078401C44490870DE
:1004C00008460078401E4149085C232803D0404874
:1004D000007814280AD11E223C493E4802F0DCFC78
:1004E00001203849087000203949087010BD10B546
:1004F00000203949087040F22551384802F030FA9E
:1005000080B340F22551354802F054FA334802F0E6
:10051000A7F93349334A127888540846314A127889
:10052000815C274802F098F92E480078401C2D493C
:10053000087008460078801E2949085C0D2805D1FE
:1005400028480078401E085C0A2805D02548007815
:1005500025490978884205D101201F4908700020EB
:100560002049087010BD00BFFEE700BFFEE700BFD6
:10057000FEE700BFFEE7704770477047704710B551
:1005800001211A4802F017F8A0B10121174802F022
:1005900023F84FF40051164800F026FE28B14FF41E
:1005A0000051134800F02FFE04E04FF400511048B2
:1005B00000F027FE10BD704770477047704700007D
:1005C0000038014029000020004400406400002061
:1005D0002B000020820000202D0000200048004059
:1005E000A00000202C0000202E000020000400406D
:1005F0000010014070B504460D46E1B29A4802F081
:100600002BF900BF8021984802F094F90028F9D016
:10061000204670BD10B586B00446012144F20400A6
:1006200000F0FAFF4FF40070ADF8140003208DF8CD
:10063000160018208DF8170005A98C4800F036FD2B
:100640004FF48060ADF8140004208DF8170005A960
:10065000864800F02BFD25208DF8000003208DF842
:1006600001008DF8020001208DF80300684601F0BA
:1006700040F801940020ADF80800ADF80A00ADF88C
:100680000C00ADF810000C20ADF80E0001A9764862
:1006900001F0E9FF012240F22551734802F07BF896
:1006A0000121714802F06BF871A002F069FC06B0FC
:1006B00010BD03226C4B1B1D1A8000BF6A4A1288B2
:1006C00012F0400FFAD0FC22674B1B1D1A8000BFAE
:1006D000654A128812F0400FFAD00AE00278624BA5
:1006E0001B1D1A8000BF604A128812F0400FFAD01A
:1006F000401C0A00A1F10101F0D1FC225A4B1B1D44
:100700001A8000BF584A128812F0400FFAD0032214
:10071000554B1B1D1A8000BF534A128812F0400F20
:10072000FAD0704710B586B004460121042000F0CD
:1007300073FF0121480400F07CFF0420ADF8140091
:1007400003208DF8160018208DF8170005A94748DA
:1007500000F0ACFC0820ADF8140004208DF8170060
:1007600005A9424800F0A2FC26208DF800000020D8
:100770008DF801008DF8020001208DF80300684615
:1007800000F0B7FF01940020ADF80800ADF80A00B2
:10079000ADF80C00ADF810000C20ADF80E0001A96A
:1007A000384801F060FF012240F22551354801F040
:1007B000F2FF0121334801F0E2FF33A002F0E0FB39
:1007C00006B010BD10B586B004460121082000F027
:1007D00023FF0121880400F02CFF4FF48060ADF866
:1007E000140003208DF8160018208DF8170005A9B5
:1007F0002A4800F05BFC4FF40060ADF814000420C0
:100800008DF8170005A9254800F050FC27208DF829
:10081000000003208DF801008DF8020001208DF802
:100820000300684600F065FF01940020ADF8080061
:10083000ADF80A00ADF80C00ADF810000C20ADF8D2
:100840000E0001A9164801F00EFF012240F22551C9
:10085000134801F0A0FF0121114801F090FF11A001
:1008600002F08EFB06B010BD0038014000080140C8
:1008700055534152543120496E69742E2E2E4F4BE0
:100880000D0A0000004400405553415254322049A3
:100890006E69742E2E2E4F4B0D0A0000000C014085
:1008A0000048004055534152543320496E69742E1C
:1008B0002E2E4F4B0D0A000070B505460C46012C3C
:1008C00004D12946D6A002F05BFB0CE0022C04D137
:1008D0002946D7A002F054FB05E0032C03D129469A
:1008E000D7A002F04DFB70BDDA49088000BFD9499E
:1008F000091F098811F0400FF9D0704700B5024672
:1009000003E01078FFF7F0FF521C10780028F8D1B0
:1009100000BD70B505460E4614460020CE4908704D
:100920002846FFF7EBFF1CE03146CC4802F0E4FA22
:1009300038B18021C94802F0C8FA0120C6490870C0
:1009400070BDC7A1C54802F0D7FA38B18021C348AD
:1009500002F0BBFA0220C0490870F1E70220FFF75D
:100960005BFD2000A4F10104DED18021BB4802F030
:10097000ACFA0320B849087000BFE1E710B54FF4A6
:10098000E130FFF71FFF4021B248001F01F0DFFFF9
:100990000A20FFF741FD3021B34802F096FAE32028
:1009A000B14908700A22B1A1B1A0FFF7B2FF044615
:1009B0002146B1A0FFF780FFA7480078012803D1A6
:1009C000B1A002F0DDFA02E0B4A002F0D9FA10BD45
:1009D00010B5B8A000F04CFA0A22A4A1B9A0FFF704
:1009E00098FF04462146BBA0FFF766FF9A480078AF
:1009F000012813D1BAA000F03BFA0A229BA1BBA0A8
:100A0000FFF787FF9449087008460078012805D150
:100A1000B9A002F0B5FABCA000F02AFA10BD10B5DA
:100A20003221BC4802F051FABBA1BA4802F076FA72
:100A3000BC49B84802F054FABBA1B64802F050FADB
:100A4000BA49B44802F04CFAB9A1B24802F048FAE7
:100A5000B8A002F095FABCA000F00AFA40F6B8324D
:100A600082A1AC48FFF755FF7B4908700846007823
:100A700048B10120B8490870B8A002F081FABDA0C1
:100A800000F0F6F905E0BEA002F07AFAC3A000F08B
:100A9000EFF910BD10B50A2274A1C4A0FFF739FF09
:100AA00004462146C5A0FFF707FF6B4800780128E0
:100AB0000DD14FF47A726DA1C4A0FFF72AFF04464E
:100AC0002146CCA0FFF7F8FECDA000F0D1F910BD73
:100AD00070B5C8250A2265A1CDA0FFF71AFF06460A
:100AE0003146CFA0FFF7E8FE20E05B480078012800
:100AF00019D13020CE49087040215648001F01F01E
:100B000026FF00240CE05848005D5249088000BFD1
:100B10005048001F008810F0400FF9D0601CC4B28C
:100B2000302CF0DB00250A20FFF75CFC2800A5F143
:100B30000105DAD170BD70B586B0BE480068BE4907
:100B4000B0FBF1F201FB1200BA490860BB48007823
:100B500048B9BBA000F08CF9B648006800F00FFA65
:100B60000120B6490870B34800684FF46161B0FBDA
:100B7000F1F000F10806AF480068B0FBF1F201FBAC
:100B800012003C21B0FBF1F4AA480068B0FBF1F27E
:100B900001FB120523463246ABA101A8009502F0E5
:100BA000FFF901A800F064F9A248006806B070BD22
:100BB00010B50020A8490870284800782B282ED1AD
:100BC0002648407849282AD1244890F82800994995
:100BD00008600846006800020860204890F8290074
:100BE00009680843934908600846006800020860E5
:100BF0001A4890F82A00096808438E490860084698
:100C0000006800020860154890F82B000968084346
:100C100088490860802086490870FFF78CFF10BD66
:100C200025732069732E2E2E4F4B0D0A00000000F5
:100C300025732069732E2E2E4572726F720D0A0075
:100C400025732069732E2E2E54696D65204F75749F
:100C50000D0A00000448004031000020A0000020E0
:100C60004552524F52000000200100204F4B00001F
:100C700041540D0A00000000436865636B20455332
:100C8000503832383500000045535038323835205E
:100C9000496E69742E2E2E4F4B0D0A004553503865
:100CA00032383520496E69742E2E2E4572726F725D
:100CB0000D0A00004368616E6765206D6F64652EE4
:100CC0002E2E000041542B43574D4F44453D330DCC
:100CD0000A0000004368616E6765206D6F646500FF
:100CE000526573746172742E2E2E000041542B5283
:100CF00053540D0A00000000526573746172742031
:100D00004F4B0D0A0000000052657374617274202D
:100D10004F4B00005001002041542B43574A415093
:100D20003D22000000000020222C220014000020A0
:100D3000220D0A005749464920436F6E6E65637461
:100D40002E2E2E0D0A0000005749464920436F6E93
:100D50006E6563742E2E2E002A000020436F6E6E87
:100D600065637420574946492069732E2E2E4F4BD8
:100D70000D0A000057494649206973204F4B210056
:100D8000436F6E6E65637420574946492069732E20
:100D90002E2E4572726F720D0A00000057494649A7
:100DA000206973204572726F7221000041542B43F9
:100DB00049504D4F44453D300D0A000053657420A5
:100DC0004349504D55583D300000000041542B43DD
:100DD000495053544152543D22554450222C2263D1
:100DE0006E2E6E74702E6F72672E636E222C3132EF
:100DF000330D0A00436F6E6E656374204E545000CD
:100E0000436F6E6E656374204E5450204F4B00004C
:100E100041542B43495053454E443D34380D0A004C
:100E20005365742043495053454E443D34380000C7
:100E30002E000020340000208051010030000020EE
:100E400053657420524343004E54502069733A2531
:100E5000643A25643A2564002D000020504908803A
:100E600000BF4F49091F098811F0400FF9D07047A2
:100E700000B5024603E01078FFF7F0FF521C10782F
:100E80000028F8D100BD10B501214FF0C05000F08E
:100E9000D0FB012001F0B7FE01F0A6FD012000F01B
:100EA0002BFB00BF412000F090FA0128FAD100028C
:100EB00000F03BFB012000F03EFB01F05BFE01F087
:100EC00051FE01F04FFE01F0FEFD47F6FF7001F00C
:100ED00023FE01F047FE01F0FFFD32A002F050F8C2
:100EE00010BD704710B5042001F0B3FDA0F580518E
:100EF00016390AD0FFF7C7FF002001F000FE41F2CB
:100F00001601042001F099FD07E001F033FE0121F4
:100F1000084601F0CBFD01F025FE00F0BBFB10BD43
:100F2000F0B587B001F0E2FD2549B0FBF1F201FB1D
:100F300012044FF4616094FBF0F000F108054FF4E7
:100F4000616094FBF0F100FB11403C2190FBF1F655
:100F50003C2094FBF0F100FB11473B46324629460A
:100F600018A002F00DF833462A461CA102A80097EB
:100F700002F016F802A8FFF77BFF07B0F0BD10B52E
:100F8000044601214FF0C05000F053FB012001F056
:100F90003AFE204601F0B3FD01F0E4FD10BD000073
:100FA0000444004052544320436F6E666967756184
:100FB0007274696F6E2069732E2E2E4F4B0D0A00CE
:100FC000805101005254432054696D652069733A81
:100FD0002025643A25643A25640D0A0052544320C2
:100FE00069733A25643A25643A25640010B50446CD
:100FF000CA48844208D10121042000F027FB0021C7
:10100000042000F023FB46E0C548844208D10121BA
:10101000082000F01BFB0021082000F017FB3AE03D
:10102000C048844208D10121102000F00FFB0021AC
:10103000102000F00BFB2EE0BB48844208D10121B8
:10104000202000F003FB0021202000F0FFFA22E026
:10105000B648844208D10121402000F0F7FA00216F
:10106000402000F0F3FA16E0B148844208D1012193
:10107000802000F0EBFA0021802000F0E7FA0AE07F
:10108000AC48844207D10121801500F0DFFA00212D
:10109000A01500F0DBFA10BD10B50121084600F0E4
:1010A000D5FA0021012000F0D1FA10BD2DE9F04160
:1010B000024600250026002000230024002791F886
:1010C00003C00CF00F0591F803C01CF0100F03D003
:1010D00091F802C04CEA050591F800C0BCF1000F80
:1010E00031D0146800202BE04FF0010C0CFA00F313
:1010F000B1F800C00CEA03069E4220D183004FF0F5
:101100000F0C0CFA03F7BC4305FA03FC4CEA040489
:1011100091F803C0BCF1280F06D14FF0010C0CFA76
:1011200000FCC2F814C00AE091F803C0BCF1480FFB
:1011300005D14FF0010C0CFA00FCC2F810C0401CA5
:101140000828D1D31460B1F800C0BCF1FF0F34DD22
:10115000546800202EE000F1080C4FF0010808FA56
:101160000CF3B1F800C00CEA03069E4221D18300C3
:101170004FF00F0C0CFA03F7BC4305FA03FC4CEAE2
:10118000040491F803C0BCF1280F05D100F1080C4C
:1011900008FA0CF8C2F8148091F803C0BCF1480FAB
:1011A00007D100F1080C4FF0010808FA0CF8C2F85A
:1011B0001080401C0828CED35460BDE8F0814FF663
:1011C000FF710180022181700421C17070470246C5
:1011D000002093680B4201D0012000E000207047FE
:1011E0000146886880B2704702460020D3680B42EF
:1011F00001D0012000E0002070470146C86880B29D
:10120000704701617047416170470AB1016100E0B8
:1012100041617047C16070474FF480320A43826178
:101220008161826182698269704702460020424B77
:1012300018684FF68073184040EA021008433E4B8E
:10124000186070473D49C8617047F0B50A460023F1
:1012500000240021002500F00046B6F1004F02D125
:10126000354EF16901E0344E7168C0F3034583B235
:1012700000F44016B6F5401F08D121F070612E4EE3
:10128000766826F070662C4F7E6012E000F48016BF
:10129000B6F5801F06D1032606FA05F4A14341F0F6
:1012A000706106E0460D360103FA06F6B14341F0DF
:1012B000706122B1460D360103FA06F6314300F0A3
:1012C0000046B6F1004F02D11B4EF16101E01A4E0B
:1012D0007160F0BD30B500228B071C0F0F2303FA9D
:1012E00004F2154B08338C1053F824309343124CFE
:1012F00008348D1044F8253023468C1053F82430E0
:101300008C07240F00FA04F423430B4C08348D108F
:1013100044F8253030BD0A49086070470008014094
:10132000000C014000100140001401400018014071
:10133000001C01400020014000000140000020424C
:10134000DC002042DD48006840F00100DB49086015
:1013500008464068DA490840D849486008460068AD
:10136000D8490840D54908600846006820F4802024
:1013700008600846406820F4FE0048604FF41F00F3
:1013800088607047CD49096821F48031CB4A1160EB
:101390001146096821F480211160B0F5803F03D027
:1013A000B0F5802F0ED106E0C449096841F48031C0
:1013B000C24A116007E0C149096841F4A021BF4A4F
:1013C000116000E000BF00BF704710B50146002269
:1013D000002300204A11012A02D1B84C236806E0FC
:1013E000022A02D1B54C236A01E0B44C636A01F0D1
:1013F0001F02012494401C4201D0012000E0002083
:1014000010BD38B5002000900024002500BF312019
:10141000FFF7DBFF05460098401C00900098B0F5F0
:10142000A06F01D0002DF2D03120FFF7CEFF08B120
:10143000012400E00024204638BD014600209F4AD8
:10144000106820F0F80040EAC100106070479E4923
:101450000860704702460020984B586820F47C10C2
:1014600042EA01031843954B586070479649086655
:10147000704701460020914A506820F0030008435D
:10148000506070478D48406800F00C00704701467E
:1014900000208A4A506820F0F000084350607047EE
:1014A00001460020854A506820F4E06008435060FF
:1014B000704701460020814A506820F4605040EA9D
:1014C000C1005060704729B17C4A527A02437B4B7D
:1014D0005A7204E0794A527A8243784B5A727047C2
:1014E0007A490860704701460020744A506820F429
:1014F00040400843506070470021754A11706F4AA0
:1015000082F82010012802D0042808D103E001212C
:101510006F4A117004E005216D4A117000E000BFB0
:1015200000BF70476B49086070476449096A01430E
:10153000624A11627047674944390860704730B5A4
:1015400000210022002400235C4D6D6805F00C0191
:1015500021B1042905D0082923D105E05E4D05609D
:1015600022E05D4D05601FE0544D6D6805F470127A
:10157000524D6D6805F48034022505EB92421CB98A
:10158000564D554305600BE04C4D6D6815F4003F1A
:1015900003D0524D5543056002E04F4D5543056061
:1015A00002E04D4D056000BF00BF444D6D6805F081
:1015B000F00109094A4D6B5C0568DD4045603F4D0F
:1015C0006D6805F4E061090A454D6B5C4568DD40D6
:1015D00085603A4D6D6805F46051C90A404D6B5CF9
:1015E0004568DD40C560354D6D6805F44041890BA7
:1015F0003C4D6B5CC568B5FBF3F5056130BD29B1A9
:101600002E4A526902432D4B5A6104E02B4A52691B
:1016100082432A4B5A61704729B1284A9269024392
:10162000264B9A6104E0254A92698243234B9A61D2
:10163000704729B1214AD2690243204BDA6104E0A4
:101640001E4AD26982431D4BDA61704729B11B4A99
:10165000D2680243194BDA6004E0184AD268824328
:10166000164BDA60704729B1144A12690243134BD2
:101670001A6104E0114A12698243104B1A617047E3
:1016800014494039086070470F49C86470470B49D6
:10169000C87170470948406A40F080700749486245
:1016A000704701460020054A92680A4201D0012095
:1016B00000E0002070470149887270470010024026
:1016C0000000FFF8FFFFF6FE00004242D800424251
:1016D000201002408004424200127A0000093D00BE
:1016E000380000204800002031490143314A116090
:1016F000704770B5002100230F22C4780CB32D4C25
:10170000246804F4E064C4F5E064210AC1F1040330
:10171000CA40447804FA03F1847814402143090153
:10172000254C0678A155047804F01F050124AC402F
:1017300005786D114FF0E02606EB8505C5F80041F0
:1017400009E0047804F01F050124AC401B4D067825
:10175000761145F8264070BD194A0A400243154BE0
:101760001B1F1A60704739B1124A121D12680243DA
:10177000104B1B1D1A6006E00E4A121D12688243B0
:101780000C4B1B1D1A607047042808D14FF0E02154
:10179000096941F004014FF0E022116107E04FF0C8
:1017A000E021096921F004014FF0E0221161704746
:1017B0000000FA050CED00E000E400E080E100E04C
:1017C00080FFFF1F10B50446FE48844208D1012166
:1017D000C014FFF73BFF0021E014FFF737FFC4E020
:1017E000B4F1804F08D101210846FFF73CFF0021EA
:1017F0000120FFF738FFB8E0F348844208D1012107
:101800000220FFF730FF00210220FFF72CFFACE0A1
:10181000EE48844208D101210420FFF724FF002173
:101820000420FFF720FFA0E0E948844208D101210D
:101830000820FFF718FF00210820FFF714FF94E0AD
:10184000E448844208D101211020FFF70CFF002159
:101850001020FFF708FF88E0DF48844208D101210B
:101860002020FFF700FF00212020FFF7FCFE7CE096
:10187000DA48844208D101214014FFF7E7FE002135
:101880006014FFF7E3FE70E0D548844209D10121DE
:10189000C804FFF7DBFE00214FF40020FFF7D6FE5F
:1018A00063E0D048844209D101210805FFF7CEFE4C
:1018B00000214FF48010FFF7C9FE56E0CA48844269
:1018C00009D101214805FFF7C1FE00214FF40010A6
:1018D000FFF7BCFE49E0C548844208D10121402001
:1018E000FFF7C1FE00214020FFF7BDFE3DE0C048EC
:1018F000844208D101218020FFF7B5FE002180201D
:10190000FFF7B1FE31E0BB48844208D101218015C8
:10191000FFF7A9FE0021A015FFF7A5FE25E0B648B8
:10192000844209D101210804FFF790FE00214FF401
:101930008030FFF78BFE18E0B048844209D10121C6
:101940004804FFF783FE00214FF40030FFF77EFECE
:101950000BE0AB48844208D101218804FFF776FEF2
:1019600000214FF48020FFF771FE10BD0022028895
:10197000944B98420ED0994B98420BD0B0F1804FC7
:1019800008D0914B984205D0904B984202D0904B92
:10199000984204D14FF68F731A404B881A438D4BEF
:1019A000984207D08C4B984204D04FF6FF431A4020
:1019B000CB881A4302808B8883850B880385814BF3
:1019C00098420BD0854B984208D08B4B984205D05B
:1019D0008A4B984202D08A4B984201D10B7A0386F7
:1019E00001238382704770B5002400220023058CF8
:1019F0004FF6FE7635400584028C8388048B4FF6C3
:101A00008F752C40B51E2C400D882C43751E2A4026
:101A10000D892A434D882A436A4DA8420BD06F4D49
:101A2000A84208D0744DA84205D0744DA84202D0F7
:101A3000734DA84213D14FF6F7752A404D892A43BA
:101A40004FF6FB752A408D882A434FF6FF652B40E1
:101A50004FF6FF552B408D892B43CD892B43838037
:101A60000483CD888586028470BD70B50024002271
:101A70000023058C4FF6EF7635400584028C838871
:101A8000048B48F6FF752C404FF6FF452C400D881F
:101A90004FF6FF7606EA05252C434FF6DF752A4000
:101AA0000D8906EA05152A434D8806EA05152A43DD
:101AB000444DA84202D0494DA8421DD14FF67F7532
:101AC0002A404D894FF6FF7606EA05152A434FF660
:101AD000BF752A408D8806EA05152A434FF6FF3563
:101AE0002B404FF2FF752B408D8906EA85052B436D
:101AF000CD8906EA85052B4383800483CD8805873D
:101B0000028470BD70B5002400220023058C4FF6BE
:101B1000FF6635400584028C8388848B4FF68F7571
:101B20002C404FF6FC752C400D882C434FF6FF558A
:101B30002A400D894FF6FF7606EA05252A434D888F
:101B400006EA05252A431F4DA84202D0234DA8428C
:101B50001DD14FF2FF752A404D894FF6FF7606EAF8
:101B600005252A434FF6FF352A408D8806EA0525CC
:101B70002A434EF6FF752B404DF6FF752B408D899D
:101B800006EA05152B43CD8906EA05152B4383800C
:101B90008483CD888587028470BD70B500220023C0
:101BA0000024058C4EF6FF7635400584038C84882E
:101BB000828B48F6FF752A404FF6FF452A400D8874
:101BC00020E00000002C014000040040000800401C
:101BD000000C0040001000400014004000340140A0
:101BE000004C0140005001400054014000180040EA
:101BF000001C004000200040004001400044014023
:101C0000004801404FF6FF7606EA05252A434DF6C7
:101C1000FF752B400D8906EA05352B434D8806EAF2
:101C200005352B43FA4DA84202D0FA4DA84208D1FF
:101C30004BF6FF752C408D894FF6FF7606EA851529
:101C40002C4384808283CD88A0F84050038470BDEB
:101C5000828B4FF2FF331A408283828B4FF6FF73E1
:101C600003EA01231A4382837047F0B50C461546F8
:101C7000002200210026078C4EF6FF7C07EA0C07A5
:101C80000784828B018C4FF6FF7707EA043640F613
:101C9000FF473A404FF6FF7707EA05273A434FF6EA
:101CA000FF7707EA03373A43D94FB8420ED0D94FEE
:101CB000B8420BD0B0F1804F08D0D74FB84205D012
:101CC000D64FB84202D0D64FB84206D14DF6FF7774
:101CD000394046F48057394305E047F6FF5739400D
:101CE00044F48057394382830184F0BD828B4FF6E0
:101CF000F3731A408283828B0A4382837047F0B564
:101D00000C461546002200210026078C4FF6FF6C7A
:101D100007EA0C070784828B018C4FF6FF7707EAEE
:101D200004264FF60C773A404FF6FF7707EA031781
:101D30002F433A43B64FB8420ED0B64FB8420BD0FD
:101D4000B0F1804F08D0B44FB84205D0B34FB8427D
:101D500002D0B34FB84206D14FF6FF57394046F490
:101D60008077394305E04FF2FF57394044F48077DC
:101D7000394382830184F0BD028B4FF2FF331A4056
:101D80000283028B4FF6FF7303EA01231A43028397
:101D90007047F0B50C461546002200210026078C3E
:101DA0004FF6EF7C07EA0C070784028B018C4FF695
:101DB000FF7707EA041640F6FF473A404FF6FF77F1
:101DC00007EA03373A434FF6FF7707EA05273A4316
:101DD0008F4FB8420ED08F4FB8420BD0B0F1804F2A
:101DE00008D08D4FB84205D08C4FB84202D08C4FEE
:101DF000B84206D14FF6DF77394046F01007394335
:101E000005E04FF65F77394044F01007394302830D
:101E10000184F0BD028B4FF6F3731A400283028BEC
:101E20000A4302837047F0B50C4615460022002194
:101E3000068C4FF6FE773E400684028B018C4FF6EF
:101E40000C7632407E1C06EA03162E433243704E57
:101E5000B0420ED06F4EB0420BD0B0F1804F08D0E0
:101E60006D4EB04205D06D4EB04202D06C4EB042C5
:101E700006D14FF6FD76314044F00106314305E0CE
:101E80004FF6F576314044F0010631430283018478
:101E9000F0BD70B505460C465D4885420ED05D48E4
:101EA00085420BD0B5F1804F08D05B48854205D004
:101EB0005A48854202D05A48854200D100E000BF0E
:101EC000208850B92389A28861882846FFF7ABFF94
:101ED000E1882846FFF79EFF25E0208804280AD1E4
:101EE0002389A28861882846FFF753FFE1882846A6
:101EF000FFF742FF17E0208808280AD12389A2882B
:101F000061882846FFF7FBFEE1882846FFF7EEFED2
:101F100009E02389A28861882846FFF7A6FEE188A8
:101F20002846FFF795FE70BD2DE9F04105460C46A9
:101F300000260127608808B9022600E00026A08854
:101F4000012801D1022700E001272088A0B92389B8
:101F5000A28861882846FFF766FFE1882846FFF7D8
:101F600059FF23893A4631462846FFF712FFE18898
:101F70002846FFF701FF13E02389A28861882846DD
:101F8000FFF707FFE1882846FFF7F6FE23893A4668
:101F900031462846FFF747FFE1882846FFF73AFF1A
:101FA000BDE8F0810A884B881A438B881A43CB8896
:101FB0001A430B891A434B891A438B891A43A0F899
:101FC000442070474FF6FF71818000210180C1805D
:101FD0004180017270470021018041808180C18071
:101FE000018141818181C18170470021018041804F
:101FF000012181800021C180018170470021018081
:1020000041808180C18001814181818170470000D0
:10201000002C014000340140000400400008004052
:10202000000C004021B1028842F00102028004E06D
:1020300002884FF6FE731A400280704731B1B0F843
:10204000442042F40042A0F8442005E0B0F84420C7
:10205000C2F30E02A0F8442070471AB183890B43E3
:10206000838102E083898B4383817047818270473B
:1020700041EA0203A0F8483070471AB183890B4344
:10208000838102E083898B438381704701894FF606
:10209000F8721140018170470A46002101894FF60C
:1020A0008F73194011430181704730B504460D46C6
:1020B00029462046FFF7F0FF208940F007002081E5
:1020C00030BD2DE9F04104460D4616461F46602DF1
:1020D00006D13B46012231462046FFF75AFE05E075
:1020E0003B46012231462046FFF79DFE2946204609
:1020F000FFF7D2FF208940F007002081BDE8F08182
:1021000030B50C4600210189C9B24FF6FF7505EACA
:102110000325154325432943018130BD2DE9F041B5
:1021200005460E4617469846002443463A46314631
:102130002846FFF7E5FF2C894FF6F870044044F07D
:1021400007044FF68F70044044F070042C81BDE802
:10215000F081F0B504460D4616461F463B46324612
:1021600029462046FFF7CCFF208940F4804020819B
:10217000F0BD0185828270470A46002101884FF632
:102180008F731940114301807047F0B50C46154616
:102190001E460021002200230189028B038C4FF68A
:1021A000F877394021434FF6FC473A4040F2011797
:1021B0003A434FF6DD773B404FF6FF7707EA0617C5
:1021C0002F433B43018102830384F0BD0A46002173
:1021D000018B4FF68F7319401143018370470A46F4
:1021E0000021018B48F6FF7319404FF6FF7303EA95
:1021F00002231943018370470A460021818B4FF661
:102200008F7319401143818370470A460021818BE7
:1022100048F6FF7319404FF6FF7303EA0223194390
:102220008183704721B1028842F08002028004E07D
:1022300002884FF67F731A400280704721B182886E
:1022400042F00402828004E082884FF6FB731A4059
:102250008280704721B1828842F00802828004E0C7
:1022600082884FF6F7731A408280704721B18288C6
:1022700042F00102828004E082884FF6FE731A4029
:10228000828070470A460021018B4FF6F773194090
:102290001143018370470A460021018B4FF2FF73FF
:1022A00019404FF6FF7303EA022319430183704775
:1022B0000A460021818B4FF6F77319401143818341
:1022C00070470A460021818B4FF2FF7319404FF689
:1022D000FF7303EA02231943818370470A460021F2
:1022E000018B4FF6FB7319401143018370470A4677
:1022F0000021018B4FF6FF3319404FF6FF7303EABD
:1023000002231943018370470A460021818B4FF64F
:10231000FB7319401143818370470A460021818B6A
:102320004FF6FF3319404FF6FF7303EA02231943B8
:10233000818370470A460021018B4FF67F73194055
:102340001143018370470A460021018BC1F30E013E
:102350004FF6FF7303EA02231943018370470A46CD
:102360000021818B4FF67F731940114381837047A1
:102370000A460021818BC1F30E014FF6FF7303EA79
:1023800002231943818370470A460021018C4FF6CE
:10239000FD7319401143018470470A460021018CE6
:1023A0004FF6F77319401143018470470A46002124
:1023B000018C4FF6DF7319404FF6FF7303EA0213E7
:1023C0001943018470470A460021018C4FF67F7340
:1023D00019404FF6FF7303EA021319430184704753
:1023E0000A460021018C4FF6FF5319404FF6FF7348
:1023F00003EA02231943018470470A460021018C35
:102400004FF2FF7319404FF6FF7303EA022319439B
:10241000018470470A460021018C4DF6FF73194074
:102420004FF6FF7303EA023319430184704730B556
:10243000002301248C40A3B2048C9C430484048CAC
:1024400002FA01F5ADB22C43048430BD30B500234F
:1024500004248C40A3B2048C9C430484048C02FAB0
:1024600001F5ADB22C43048430BD70B503460020A5
:1024700000241846183001258D40ACB21D8CA543B0
:102480001D8409B1082909D100EB6100056825F018
:10249000700505600568154305600EE00D1FC5F366
:1024A0004E052844056825F4E045056005684FF6AB
:1024B000FF7606EA02263543056070BD21B1028829
:1024C00042F00202028004E002884FF6FD731A40D7
:1024D0000280704721B1028842F00402028004E0C9
:1024E00002884FF6FB731A400280704721B1828840
:1024F00042F08002828004E082884FF67F731A40A7
:102500008280704702884FF6F7731A400280028873
:102510000A430280704782884FF68F731A40828088
:1025200082880A438280704702894FF6F8731A4006
:10253000028102890A430281704702894FF67F7344
:102540001A40028102890A430281704781847047E0
:102550008185704781867047018770478187704702
:10256000A0F84010704702884FF6FF431A400280DF
:1025700002880A43028070470146888E70470146F0
:10258000088F70470146888F70470146B1F84000B8
:1025900070470146888C70470146088D7047024697
:1025A0000020138A0B4201D0012000E00020704778
:1025B000CA430282704730B502460020002300243F
:1025C000158A05EA0103958905EA010413B10CB1E6
:1025D000012000E0002030BDCA43028270470000A5
:1025E00010B50446FB48844209D101218803FFF756
:1025F0002DF800214FF48040FFF728F832E0F6482C
:10260000844209D101214804FFF72DF800214FF43D
:102610000030FFF728F825E0F048844209D1012175
:102620008804FFF720F800214FF48020FFF71BF803
:1026300018E0EB48844209D10121C804FFF713F8E0
:1026400000214FF40020FFF70EF80BE0E54884422C
:1026500008D101210805FFF706F800214FF480108A
:10266000FFF701F810BD2DE9F04786B005460E468C
:102670000024A24600BFA1460027B08900B100BFD8
:102680002F462C8A4CF6FF700440F08804432C82BD
:10269000AC894EF6F3100440B08831890843718943
:1026A00008430443AC81AC8A4FF6FF400440B08934
:1026B0000443AC8201A8FEF742FFC648874202D11C
:1026C000DDF810A001E0DDF80CA0A88910F4004F9F
:1026D00008D00AEBCA0000EB0A1031684900B0FBD1
:1026E000F1F807E00AEBCA0000EB0A103168890034
:1026F000B0FBF1F86420B8FBF0F00401200964217C
:1027000001FB1089A88910F4004F08D0322000EB9B
:10271000C900B0FBF1F000F00700044308E03220EC
:1027200000EB09106421B0FBF1F000F00F0004434E
:102730002C8106B0BDE8F0874FF4165101600021EE
:102740008180C18001810C214181002181817047FC
:1027500010B502460020108A4FF2FF0318400B8884
:102760004C8823438C882343CC882343184310820E
:1027700010BD0021018041808180C180704721B15E
:10278000828942F40052828104E082894DF6FF730F
:102790001A4082817047F0B50346002400260025C8
:1027A0000020A1F510676A3F00D100BF1846C1F3B1
:1027B000421401F01F06012707FA06F5012C01D18A
:1027C0000C3004E0022C01D1103000E014301AB1BA
:1027D00007682F43076002E00768AF430760F0BD5A
:1027E0001AB1838A0B43838202E0838A8B438382FC
:1027F0007047028A4FF6F0731A400282028A0A4337
:102800000282704782894FF2FF731A408281828967
:102810000A438281704721B1828942F0020282819B
:1028200004E082894FF6FD731A4082817047028A64
:102830004FF6DF731A400282028A0A43028270470F
:1028400021B1028A42F48042028204E0028A4BF6FD
:10285000FF731A4002827047C1F3080282807047FA
:1028600001468888C0F308007047818941F0010162
:1028700081817047028BD2B20283028B42EA01222D
:1028800002837047028B02F47F420283028B0A4369
:102890000283704721B1828A42F02002828204E0E2
:1028A000828A4FF6DF731A408282704721B1828A92
:1028B00042F01002828204E0828A4FF6EF731A40DF
:1028C0008282704721B1828A42F00802828204E04B
:1028D000828A4FF6F7731A408282704721B182894B
:1028E00042F40042828103E08289C2F30E028281B7
:1028F000704721B1828A42F40062828204E0828AB7
:102900004FF2FF731A4082827047828A4FF6FB7340
:102910001A408282828A0A438282704721B1828A67
:1029200042F00202828204E0828A4FF6FD731A406E
:102930008282704702460020B1F5007F00D100BFBF
:1029400013880B4201D0012000E00020704701F401
:102950000072B2F5007F00D100BFCA430280704709
:1029600070B502460024002300250020A1F5106662
:102970006A3E00D100BFC1F3421501F01F030126DA
:1029800006FA03F3012D02D19689334006E0022DA9
:1029900002D1168A334001E0968A33400C12012698
:1029A00006FA04F41688344013B10CB1012000E09B
:1029B000002070BD10B500220023A1F510646A3C10
:1029C00000D100BF0A1201249440A3B2DC4304806A
:1029D00010BD0000003801400044004000480040A5
:1029E000004C00400050004010B50120FEF748FEAA
:1029F0000020FEF745FE10BD2A49086070472949AE
:102A0000091F0860704727498431086070470146F4
:102A10000020254A10884FF67F4210400843224A82
:102A200010807047014600201F4A10884FF68072C0
:102A3000104008431C4A1080704708B500220092DD
:102A4000194A2C3A0092009A02440092009A1160AE
:102A500008BD08B501460020009013482C380090AE
:102A60000098084400900098008808BD0D489C30EC
:102A70000068C0B270470C480830008840F0010080
:102A800009490831088070470648A0300068C0B284
:102A9000704705480830008840F0020002490831BC
:102AA0000880704704860D422C6C004029B14F4AC3
:102AB000128802434D4B1A8004E04C4A128882432C
:102AC0004A4B1A8070474948001D008840F01000AA
:102AD0004649091D088070474448001D00884FF68C
:102AE000EF7108404149091D0880704700213F48A7
:102AF0001C300188001F008841EA0040704700B583
:102B00000246FFF7E0FF100C384918310880091D14
:102B10000A80FFF7E1FF00BD00B50246FFF7D3FFD3
:102B2000C2F30340314908310880091D0A80FFF7CC
:102B3000D3FF00BD00B50246FFF7C5FF100C2B49BF
:102B400020310880091D0A80FFF7C6FF00BD002064
:102B50002649103109880907080B244914310988CE
:102B60000843704700BF2148001D008810F0200F67
:102B7000F9D070471D48001D00884FF6F7710840D6
:102B80001A49091D088000BF1848001D008810F070
:102B9000080FF9D0704701460020144A121D128810
:102BA0000A4201D0012000E0002070470F49091DB2
:102BB000098881430D4A121D11807047014600208B
:102BC0000A4A121D12880A40D0B2084A12880A42E4
:102BD00002D008B1012000E0002070470349091D20
:102BE00009888143014A121D118070470028004066
:102BF00010B501210807FEF736FD00214FF0805087
:102C0000FEF731FD10BD2949086270472749086168
:102C1000704701460020264A106820F0E000084373
:102C20001060704723490860704710B502460020C5
:102C30001F4B186820F00300104318601E4B1B68E0
:102C400043F004031C4C2360012901D130BF00E094
:102C500020BF194B1B6823F00403174C236010BDE1
:102C60001348006840F004001149086008460068F5
:102C700040F0020008601048006840F004000E496F
:102C8000086000BF00BF30BF704701460020084AFF
:102C900052680A4201D0012000E000207047044938
:102CA000096841EA8001024A1160704700000E4243
:102CB00000700040A0000E4210ED00E00CB50020B6
:102CC000019000906B48006840F4803069490860CA
:102CD00000BF6848006800F4003000900198401C74
:102CE0000190009818B90198B0F5A06FF1D1614832
:102CF000006810F4003F02D00120009001E00020A5
:102D000000900098012842D15B48006840F0100014
:102D1000594908600846006820F00300086008462A
:102D2000006840F00200086052484068514948601D
:102D30000846406848600846406840F48060486043
:102D40000846406820F47C1048600846406840F41B
:102D5000E81048600846006840F08070086000BFD6
:102D60004448006810F0007FFAD04248406820F0E4
:102D70000300404948600846406840F0020048604F
:102D800000BF3C48406800F00C000828F9D10CBD99
:102D900010B5FFF793FF10BD10B53648006840F03E
:102DA0000100344908600846406834490840314908
:102DB000486008460068324908402E4908600846C5
:102DC000006820F4802008600846406820F4FE0077
:102DD00048604FF41F008860FFF7DAFF4FF0006093
:102DE0002849086010BD10B5002100200022214BA9
:102DF0005B6803F00C0121B1042906D0082928D111
:102E000007E0214B214C236027E01F4B1F4C236020
:102E100023E0184B5B6803F47010164B5B6803F4F7
:102E20008032022303EB904022B9194B4343174CE5
:102E300023600DE00F4B5B6813F4003F04D0144B8C
:102E40004343124C236003E00F4B43430F4C23607A
:102E500003E00D4B0D4C236000BF00BF054B5B68CA
:102E6000C3F303130B4CE15C084B1B68CB40074CCE
:102E7000236010BD00100240002002400000FFF857
:102E8000FFFFF6FE08ED00E000127A004C00002083
:102E900000093D005000002040EA01039B0703D0D9
:102EA00009E008C9121F08C0042AFAD203E011F889
:102EB000013B00F8013B521EF9D27047D2B201E04B
:102EC00000F8012B491EFBD270470022F6E710B52F
:102ED00013460A4604461946FFF7F0FF204610BD88
:102EE000421E12F8013F002BFBD111F8013B02F802
:102EF000013B002BF9D1704730B505462A460B46F9
:102F000012F8010B13F8014B08B1A042F8D01CB124
:102F1000002802D06D1CF1E7284630BD034611F8A9
:102F2000012B00F8012B002AF9D11846704730B563
:102F30000B46014600202022012409E021FA02F577
:102F40009D4205D303FA02F5491B04FA02F5284411
:102F5000151EA2F10102F1DC30BD0000064C074D48
:102F600006E0E06840F0010394E807009847103459
:102F7000AC42F6D3FDF7E0F8AC310008CC310008E4
:102F80000FB4054B10B503A9044A029800F02CF8C1
:102F900010BC5DF814FB0000F5050008600000207F
:102FA0000FB4084B10B504A902AA039800F01CF84E
:102FB000044602A9002000F0F3F8204610BC5DF89A
:102FC00014FB0000A131000802E008C8121F08C16C
:102FD000002AFAD170477047002001E001C1121F9A
:102FE000002AFBD1704700002DE9FF4F8BB09A46B5
:102FF0000F4605460026C9E0252837D100246D1C60
:103000006649A04601222B78203B02FA03F00842D1
:1030100002D004436D1CF6E728782E2817D115F846
:10302000010F44F004042A280ED06FF02F022878F4
:10303000A0F1300109290AD808EB880102EB41010F
:1030400000EB01086D1CF2E757F8048B6D1C287823
:1030500069283FD006DC002871D063280CD0642892
:1030600004D137E0732811D075284ED052460D99FF
:10307000904706F1010688E017F8040B8DF8000070
:1030800000208DF80100E946012003E057F8049B79
:103090004FF0FF3061074FF0000401D40AE0641CD8
:1030A00044450DDA8442FADB19F804100029F6D100
:1030B00006E0641C8442FCDB19F804100029F8D1F6
:1030C000264404E019F8010B52460D999047641EFE
:1030D000F8D25AE001CF4FF00A0B002804DAC0F111
:1030E00000004FF02D0102E0210504D52B218DF8C1
:1030F0002410012103E0E10705D02021F7E70DF1BD
:10310000200908910CE00021F9E701CF4FF00A0BEC
:10311000F9E75946FFF70BFF01F1300209F8012DDD
:103120000028F6D1ADEB090000F1200B600701D4B7
:103130004FF00108D84503DDA8EB0B0001E029E0C2
:1031400000208046002406E009A85246005D0D9943
:103150009047761C641C08988442F5DB04E030201C
:1031600052460D999047761CB8F10001A8F101086C
:10317000F5DC05E019F8010B52460D999047761CD5
:10318000BBF10001ABF1010BF4DC6D1C28780028C9
:103190007FF432AF0FB03046BDE8F08F0928010050
:1031A0000A68531C0B60107070470000CC31000897
:1031B0000000002064000000C82F00083032000822
:1031C0006400002024050000D82F00085365676FB5
:1031D00050657400000000000000000000000000C6
:1031E0005365676F746563684033303100000000D9
:1031F00000000000000000000000000000000000CF
:1032000000000000000000000102030401020304AA
:10321000060708090204060800A24A04000000008C
:103220000000000001020304060708090000000076
:0400000508000131BD
:00000001FF
